:020000040800F2
:10000000000003208D010008890100088901000813
:10001000890100088901000889010008000000002A
:10002000000000000000000000000000890100083E
:10003000890100080000000089010008890100080A
:100040008901000889010008890100088901000868
:100050008901000889010008890100088901000858
:100060008901000889010008890100088901000848
:100070008901000889010008890100088901000838
:100080008901000889010008890100088901000828
:100090008901000889010008890100088901000818
:1000A0008901000889010008890100088901000808
:1000B00089010008890100088901000889010008F8
:1000C00089010008890100088901000889010008E8
:1000D00089010008890100088901000889010008D8
:1000E00089010008890100088901000889010008C8
:1000F00089010008890100088901000889010008B8
:1001000089010008890100088901000889010008A7
:100110008901000889010008890100088901000897
:100120008901000889010008890100088901000887
:100130008901000889010008890100088901000877
:100140008901000889010008890100088901000867
:100150008901000889010008890100088901000857
:100160008901000889010008890100088901000847
:100170008901000889010008890100088901000837
:08018000890100088901000853
:10018800FEE700BF08B50C4B0C4A1946934206D04F
:100198000B681B6003F1040301F10401F6E7084B47
:1001A800084A934205D04FF000031B6003F1040393
:1001B800F7E700F009F8FEE7000000200000002043
:1001C80000000020000000201048114BD0F8302813
:1001D80042F00102C0F83028186820F44050186036
:1001E800186840F480501860586820F04000586043
:1001F800986840F440509860D86820F440504021F6
:100208004FF48002D86099619A61FCE7003002409F
:0402180000000240A0
:040000050800018866
:00000001FF
